{
  "contractName": "NFcool",
  "abi": [
    {
      "inputs": [],
      "stateMutability": "nonpayable",
      "type": "constructor"
    },
    {
      "anonymous": false,
      "inputs": [
        {
          "indexed": true,
          "internalType": "address",
          "name": "account",
          "type": "address"
        },
        {
          "indexed": true,
          "internalType": "address",
          "name": "operator",
          "type": "address"
        },
        {
          "indexed": false,
          "internalType": "bool",
          "name": "approved",
          "type": "bool"
        }
      ],
      "name": "ApprovalForAll",
      "type": "event"
    },
    {
      "anonymous": false,
      "inputs": [
        {
          "indexed": false,
          "internalType": "address",
          "name": "account",
          "type": "address"
        }
      ],
      "name": "Paused",
      "type": "event"
    },
    {
      "anonymous": false,
      "inputs": [
        {
          "indexed": true,
          "internalType": "bytes32",
          "name": "role",
          "type": "bytes32"
        },
        {
          "indexed": true,
          "internalType": "bytes32",
          "name": "previousAdminRole",
          "type": "bytes32"
        },
        {
          "indexed": true,
          "internalType": "bytes32",
          "name": "newAdminRole",
          "type": "bytes32"
        }
      ],
      "name": "RoleAdminChanged",
      "type": "event"
    },
    {
      "anonymous": false,
      "inputs": [
        {
          "indexed": true,
          "internalType": "bytes32",
          "name": "role",
          "type": "bytes32"
        },
        {
          "indexed": true,
          "internalType": "address",
          "name": "account",
          "type": "address"
        },
        {
          "indexed": true,
          "internalType": "address",
          "name": "sender",
          "type": "address"
        }
      ],
      "name": "RoleGranted",
      "type": "event"
    },
    {
      "anonymous": false,
      "inputs": [
        {
          "indexed": true,
          "internalType": "bytes32",
          "name": "role",
          "type": "bytes32"
        },
        {
          "indexed": true,
          "internalType": "address",
          "name": "account",
          "type": "address"
        },
        {
          "indexed": true,
          "internalType": "address",
          "name": "sender",
          "type": "address"
        }
      ],
      "name": "RoleRevoked",
      "type": "event"
    },
    {
      "anonymous": false,
      "inputs": [
        {
          "indexed": true,
          "internalType": "address",
          "name": "operator",
          "type": "address"
        },
        {
          "indexed": true,
          "internalType": "address",
          "name": "from",
          "type": "address"
        },
        {
          "indexed": true,
          "internalType": "address",
          "name": "to",
          "type": "address"
        },
        {
          "indexed": false,
          "internalType": "uint256[]",
          "name": "ids",
          "type": "uint256[]"
        },
        {
          "indexed": false,
          "internalType": "uint256[]",
          "name": "values",
          "type": "uint256[]"
        }
      ],
      "name": "TransferBatch",
      "type": "event"
    },
    {
      "anonymous": false,
      "inputs": [
        {
          "indexed": true,
          "internalType": "address",
          "name": "operator",
          "type": "address"
        },
        {
          "indexed": true,
          "internalType": "address",
          "name": "from",
          "type": "address"
        },
        {
          "indexed": true,
          "internalType": "address",
          "name": "to",
          "type": "address"
        },
        {
          "indexed": false,
          "internalType": "uint256",
          "name": "id",
          "type": "uint256"
        },
        {
          "indexed": false,
          "internalType": "uint256",
          "name": "value",
          "type": "uint256"
        }
      ],
      "name": "TransferSingle",
      "type": "event"
    },
    {
      "anonymous": false,
      "inputs": [
        {
          "indexed": false,
          "internalType": "string",
          "name": "value",
          "type": "string"
        },
        {
          "indexed": true,
          "internalType": "uint256",
          "name": "id",
          "type": "uint256"
        }
      ],
      "name": "URI",
      "type": "event"
    },
    {
      "anonymous": false,
      "inputs": [
        {
          "indexed": false,
          "internalType": "address",
          "name": "account",
          "type": "address"
        }
      ],
      "name": "Unpaused",
      "type": "event"
    },
    {
      "inputs": [],
      "name": "DEFAULT_ADMIN_ROLE",
      "outputs": [
        {
          "internalType": "bytes32",
          "name": "",
          "type": "bytes32"
        }
      ],
      "stateMutability": "view",
      "type": "function"
    },
    {
      "inputs": [],
      "name": "MINTER_ROLE",
      "outputs": [
        {
          "internalType": "bytes32",
          "name": "",
          "type": "bytes32"
        }
      ],
      "stateMutability": "view",
      "type": "function"
    },
    {
      "inputs": [],
      "name": "PAUSER_ROLE",
      "outputs": [
        {
          "internalType": "bytes32",
          "name": "",
          "type": "bytes32"
        }
      ],
      "stateMutability": "view",
      "type": "function"
    },
    {
      "inputs": [
        {
          "internalType": "address",
          "name": "account",
          "type": "address"
        },
        {
          "internalType": "uint256",
          "name": "id",
          "type": "uint256"
        }
      ],
      "name": "balanceOf",
      "outputs": [
        {
          "internalType": "uint256",
          "name": "",
          "type": "uint256"
        }
      ],
      "stateMutability": "view",
      "type": "function"
    },
    {
      "inputs": [
        {
          "internalType": "address[]",
          "name": "accounts",
          "type": "address[]"
        },
        {
          "internalType": "uint256[]",
          "name": "ids",
          "type": "uint256[]"
        }
      ],
      "name": "balanceOfBatch",
      "outputs": [
        {
          "internalType": "uint256[]",
          "name": "",
          "type": "uint256[]"
        }
      ],
      "stateMutability": "view",
      "type": "function"
    },
    {
      "inputs": [
        {
          "internalType": "address",
          "name": "account",
          "type": "address"
        },
        {
          "internalType": "uint256",
          "name": "id",
          "type": "uint256"
        },
        {
          "internalType": "uint256",
          "name": "value",
          "type": "uint256"
        }
      ],
      "name": "burn",
      "outputs": [],
      "stateMutability": "nonpayable",
      "type": "function"
    },
    {
      "inputs": [
        {
          "internalType": "address",
          "name": "account",
          "type": "address"
        },
        {
          "internalType": "uint256[]",
          "name": "ids",
          "type": "uint256[]"
        },
        {
          "internalType": "uint256[]",
          "name": "values",
          "type": "uint256[]"
        }
      ],
      "name": "burnBatch",
      "outputs": [],
      "stateMutability": "nonpayable",
      "type": "function"
    },
    {
      "inputs": [
        {
          "internalType": "bytes32",
          "name": "role",
          "type": "bytes32"
        }
      ],
      "name": "getRoleAdmin",
      "outputs": [
        {
          "internalType": "bytes32",
          "name": "",
          "type": "bytes32"
        }
      ],
      "stateMutability": "view",
      "type": "function"
    },
    {
      "inputs": [
        {
          "internalType": "bytes32",
          "name": "role",
          "type": "bytes32"
        },
        {
          "internalType": "uint256",
          "name": "index",
          "type": "uint256"
        }
      ],
      "name": "getRoleMember",
      "outputs": [
        {
          "internalType": "address",
          "name": "",
          "type": "address"
        }
      ],
      "stateMutability": "view",
      "type": "function"
    },
    {
      "inputs": [
        {
          "internalType": "bytes32",
          "name": "role",
          "type": "bytes32"
        }
      ],
      "name": "getRoleMemberCount",
      "outputs": [
        {
          "internalType": "uint256",
          "name": "",
          "type": "uint256"
        }
      ],
      "stateMutability": "view",
      "type": "function"
    },
    {
      "inputs": [
        {
          "internalType": "bytes32",
          "name": "role",
          "type": "bytes32"
        },
        {
          "internalType": "address",
          "name": "account",
          "type": "address"
        }
      ],
      "name": "grantRole",
      "outputs": [],
      "stateMutability": "nonpayable",
      "type": "function"
    },
    {
      "inputs": [
        {
          "internalType": "bytes32",
          "name": "role",
          "type": "bytes32"
        },
        {
          "internalType": "address",
          "name": "account",
          "type": "address"
        }
      ],
      "name": "hasRole",
      "outputs": [
        {
          "internalType": "bool",
          "name": "",
          "type": "bool"
        }
      ],
      "stateMutability": "view",
      "type": "function"
    },
    {
      "inputs": [
        {
          "internalType": "address",
          "name": "account",
          "type": "address"
        },
        {
          "internalType": "address",
          "name": "operator",
          "type": "address"
        }
      ],
      "name": "isApprovedForAll",
      "outputs": [
        {
          "internalType": "bool",
          "name": "",
          "type": "bool"
        }
      ],
      "stateMutability": "view",
      "type": "function"
    },
    {
      "inputs": [
        {
          "internalType": "address",
          "name": "to",
          "type": "address"
        },
        {
          "internalType": "uint256",
          "name": "id",
          "type": "uint256"
        },
        {
          "internalType": "uint256",
          "name": "amount",
          "type": "uint256"
        },
        {
          "internalType": "bytes",
          "name": "data",
          "type": "bytes"
        }
      ],
      "name": "mint",
      "outputs": [],
      "stateMutability": "nonpayable",
      "type": "function"
    },
    {
      "inputs": [
        {
          "internalType": "address",
          "name": "to",
          "type": "address"
        },
        {
          "internalType": "uint256[]",
          "name": "ids",
          "type": "uint256[]"
        },
        {
          "internalType": "uint256[]",
          "name": "amounts",
          "type": "uint256[]"
        },
        {
          "internalType": "bytes",
          "name": "data",
          "type": "bytes"
        }
      ],
      "name": "mintBatch",
      "outputs": [],
      "stateMutability": "nonpayable",
      "type": "function"
    },
    {
      "inputs": [],
      "name": "pause",
      "outputs": [],
      "stateMutability": "nonpayable",
      "type": "function"
    },
    {
      "inputs": [],
      "name": "paused",
      "outputs": [
        {
          "internalType": "bool",
          "name": "",
          "type": "bool"
        }
      ],
      "stateMutability": "view",
      "type": "function"
    },
    {
      "inputs": [
        {
          "internalType": "bytes32",
          "name": "role",
          "type": "bytes32"
        },
        {
          "internalType": "address",
          "name": "account",
          "type": "address"
        }
      ],
      "name": "renounceRole",
      "outputs": [],
      "stateMutability": "nonpayable",
      "type": "function"
    },
    {
      "inputs": [
        {
          "internalType": "bytes32",
          "name": "role",
          "type": "bytes32"
        },
        {
          "internalType": "address",
          "name": "account",
          "type": "address"
        }
      ],
      "name": "revokeRole",
      "outputs": [],
      "stateMutability": "nonpayable",
      "type": "function"
    },
    {
      "inputs": [
        {
          "internalType": "address",
          "name": "from",
          "type": "address"
        },
        {
          "internalType": "address",
          "name": "to",
          "type": "address"
        },
        {
          "internalType": "uint256[]",
          "name": "ids",
          "type": "uint256[]"
        },
        {
          "internalType": "uint256[]",
          "name": "amounts",
          "type": "uint256[]"
        },
        {
          "internalType": "bytes",
          "name": "data",
          "type": "bytes"
        }
      ],
      "name": "safeBatchTransferFrom",
      "outputs": [],
      "stateMutability": "nonpayable",
      "type": "function"
    },
    {
      "inputs": [
        {
          "internalType": "address",
          "name": "from",
          "type": "address"
        },
        {
          "internalType": "address",
          "name": "to",
          "type": "address"
        },
        {
          "internalType": "uint256",
          "name": "id",
          "type": "uint256"
        },
        {
          "internalType": "uint256",
          "name": "amount",
          "type": "uint256"
        },
        {
          "internalType": "bytes",
          "name": "data",
          "type": "bytes"
        }
      ],
      "name": "safeTransferFrom",
      "outputs": [],
      "stateMutability": "nonpayable",
      "type": "function"
    },
    {
      "inputs": [
        {
          "internalType": "address",
          "name": "operator",
          "type": "address"
        },
        {
          "internalType": "bool",
          "name": "approved",
          "type": "bool"
        }
      ],
      "name": "setApprovalForAll",
      "outputs": [],
      "stateMutability": "nonpayable",
      "type": "function"
    },
    {
      "inputs": [
        {
          "internalType": "bytes4",
          "name": "interfaceId",
          "type": "bytes4"
        }
      ],
      "name": "supportsInterface",
      "outputs": [
        {
          "internalType": "bool",
          "name": "",
          "type": "bool"
        }
      ],
      "stateMutability": "view",
      "type": "function"
    },
    {
      "inputs": [],
      "name": "unpause",
      "outputs": [],
      "stateMutability": "nonpayable",
      "type": "function"
    },
    {
      "inputs": [
        {
          "internalType": "uint256",
          "name": "",
          "type": "uint256"
        }
      ],
      "name": "uri",
      "outputs": [
        {
          "internalType": "string",
          "name": "",
          "type": "string"
        }
      ],
      "stateMutability": "view",
      "type": "function"
    },
    {
      "inputs": [
        {
          "internalType": "uint256",
          "name": "tokenId",
          "type": "uint256"
        }
      ],
      "name": "tokenURI",
      "outputs": [
        {
          "internalType": "string",
          "name": "",
          "type": "string"
        }
      ],
      "stateMutability": "view",
      "type": "function"
    }
  ],
  "bytecode": "0x60806040523480156200001157600080fd5b506040518060600160405280602781526020016200528460279139806200003e816200010760201b60201c565b506000600560006101000a81548160ff0219169083151502179055506200007e6000801b620000726200012360201b60201c565b6200012b60201b60201c565b620000bf7f9f2df0fed2c77648de5860a4cc508cd0818c85b8b8a1ab4ceeef8d981c8956a6620000b36200012360201b60201c565b6200012b60201b60201c565b620001007f65d7a28e3265b37a6474929f336521b332c1681b933f6cb9f3376673440d862a620000f46200012360201b60201c565b6200012b60201b60201c565b50620004ce565b80600490805190602001906200011f929190620003b9565b5050565b600033905090565b6200014282826200017360201b620011431760201c565b6200016e81600160008581526020019081526020016000206200018960201b620011511790919060201c565b505050565b620001858282620001c160201b60201c565b5050565b6000620001b9836000018373ffffffffffffffffffffffffffffffffffffffff1660001b620002b260201b60201c565b905092915050565b620001d382826200032c60201b60201c565b620002ae57600160008084815260200190815260200160002060000160008373ffffffffffffffffffffffffffffffffffffffff1673ffffffffffffffffffffffffffffffffffffffff16815260200190815260200160002060006101000a81548160ff021916908315150217905550620002536200012360201b60201c565b73ffffffffffffffffffffffffffffffffffffffff168173ffffffffffffffffffffffffffffffffffffffff16837f2f8788117e7eff1d82e926ec794901d17c78024a50270940304540a733656f0d60405160405180910390a45b5050565b6000620002c683836200039660201b60201c565b6200032157826000018290806001815401808255809150506001900390600052602060002001600090919091909150558260000180549050836001016000848152602001908152602001600020819055506001905062000326565b600090505b92915050565b600080600084815260200190815260200160002060000160008373ffffffffffffffffffffffffffffffffffffffff1673ffffffffffffffffffffffffffffffffffffffff16815260200190815260200160002060009054906101000a900460ff16905092915050565b600080836001016000848152602001908152602001600020541415905092915050565b828054620003c79062000469565b90600052602060002090601f016020900481019282620003eb576000855562000437565b82601f106200040657805160ff191683800117855562000437565b8280016001018555821562000437579182015b828111156200043657825182559160200191906001019062000419565b5b5090506200044691906200044a565b5090565b5b80821115620004655760008160009055506001016200044b565b5090565b600060028204905060018216806200048257607f821691505b602082108114156200049957620004986200049f565b5b50919050565b7f4e487b7100000000000000000000000000000000000000000000000000000000600052602260045260246000fd5b614da680620004de6000396000f3fe608060405234801561001057600080fd5b506004361061018d5760003560e01c80638456cb59116100de578063ca15c87311610097578063e63ab1e911610071578063e63ab1e914610490578063e985e9c5146104ae578063f242432a146104de578063f5298aca146104fa5761018d565b8063ca15c87314610426578063d539139314610456578063d547741f146104745761018d565b80638456cb59146103525780639010d07c1461035c57806391d148541461038c578063a217fddf146103bc578063a22cb465146103da578063c87b56dd146103f65761018d565b80632f2ff15d1161014b5780634e1273f4116101255780634e1273f4146102cc5780635c975abb146102fc5780636b20c4541461031a578063731133e9146103365761018d565b80632f2ff15d1461028a57806336568abe146102a65780633f4ba83a146102c25761018d565b8062fdd58e1461019257806301ffc9a7146101c25780630e89341c146101f25780631f7fdffa14610222578063248a9ca31461023e5780632eb2c2d61461026e575b600080fd5b6101ac60048036038101906101a79190613714565b610516565b6040516101b991906147da565b60405180910390f35b6101dc60048036038101906101d79190613927565b6105e0565b6040516101e991906144e2565b60405180910390f35b61020c60048036038101906102079190613979565b6105f2565b6040516102199190614518565b60405180910390f35b61023c6004803603810190610237919061362d565b610686565b005b61025860048036038101906102539190613886565b610708565b60405161026591906144fd565b60405180910390f35b61028860048036038101906102839190613460565b610727565b005b6102a4600480360381019061029f91906138af565b6107c8565b005b6102c060048036038101906102bb91906138af565b6107fc565b005b6102ca610830565b005b6102e660048036038101906102e1919061381a565b6108aa565b6040516102f39190614489565b60405180910390f35b610304610a5b565b60405161031191906144e2565b60405180910390f35b610334600480360381019061032f91906135ae565b610a72565b005b610350600480360381019061034b919061379f565b610b0f565b005b61035a610b91565b005b610376600480360381019061037191906138eb565b610c0b565b60405161038391906143ac565b60405180910390f35b6103a660048036038101906103a191906138af565b610c3a565b6040516103b391906144e2565b60405180910390f35b6103c4610ca4565b6040516103d191906144fd565b60405180910390f35b6103f460048036038101906103ef91906136d8565b610cab565b005b610410600480360381019061040b9190613979565b610e2c565b60405161041d9190614518565b60405180910390f35b610440600480360381019061043b9190613886565b610ed1565b60405161044d91906147da565b60405180910390f35b61045e610ef5565b60405161046b91906144fd565b60405180910390f35b61048e600480360381019061048991906138af565b610f19565b005b610498610f4d565b6040516104a591906144fd565b60405180910390f35b6104c860048036038101906104c39190613424565b610f71565b6040516104d591906144e2565b60405180910390f35b6104f860048036038101906104f3919061351f565b611005565b005b610514600480360381019061050f9190613750565b6110a6565b005b60008073ffffffffffffffffffffffffffffffffffffffff168373ffffffffffffffffffffffffffffffffffffffff161415610587576040517f08c379a000000000000000000000000000000000000000000000000000000000815260040161057e906145ba565b60405180910390fd5b6002600083815260200190815260200160002060008473ffffffffffffffffffffffffffffffffffffffff1673ffffffffffffffffffffffffffffffffffffffff16815260200190815260200160002054905092915050565b60006105eb82611181565b9050919050565b60606004805461060190614b21565b80601f016020809104026020016040519081016040528092919081815260200182805461062d90614b21565b801561067a5780601f1061064f5761010080835404028352916020019161067a565b820191906000526020600020905b81548152906001019060200180831161065d57829003601f168201915b50505050509050919050565b6106b77f9f2df0fed2c77648de5860a4cc508cd0818c85b8b8a1ab4ceeef8d981c8956a66106b2611263565b610c3a565b6106f6576040517f08c379a00000000000000000000000000000000000000000000000000000000081526004016106ed906146ba565b60405180910390fd5b6107028484848461126b565b50505050565b6000806000838152602001908152602001600020600101549050919050565b61072f611263565b73ffffffffffffffffffffffffffffffffffffffff168573ffffffffffffffffffffffffffffffffffffffff16148061077557506107748561076f611263565b610f71565b5b6107b4576040517f08c379a00000000000000000000000000000000000000000000000000000000081526004016107ab9061467a565b60405180910390fd5b6107c185858585856114d6565b5050505050565b6107d28282611839565b6107f7816001600085815260200190815260200160002061115190919063ffffffff16565b505050565b6108068282611862565b61082b81600160008581526020019081526020016000206118e590919063ffffffff16565b505050565b6108617f65d7a28e3265b37a6474929f336521b332c1681b933f6cb9f3376673440d862a61085c611263565b610c3a565b6108a0576040517f08c379a0000000000000000000000000000000000000000000000000000000008152600401610897906146fa565b60405180910390fd5b6108a8611915565b565b606081518351146108f0576040517f08c379a00000000000000000000000000000000000000000000000000000000081526004016108e79061475a565b60405180910390fd5b6000835167ffffffffffffffff811115610933577f4e487b7100000000000000000000000000000000000000000000000000000000600052604160045260246000fd5b6040519080825280602002602001820160405280156109615781602001602082028036833780820191505090505b50905060005b8451811015610a50576109fa8582815181106109ac577f4e487b7100000000000000000000000000000000000000000000000000000000600052603260045260246000fd5b60200260200101518583815181106109ed577f4e487b7100000000000000000000000000000000000000000000000000000000600052603260045260246000fd5b6020026020010151610516565b828281518110610a33577f4e487b7100000000000000000000000000000000000000000000000000000000600052603260045260246000fd5b60200260200101818152505080610a4990614b53565b9050610967565b508091505092915050565b6000600560009054906101000a900460ff16905090565b610a7a611263565b73ffffffffffffffffffffffffffffffffffffffff168373ffffffffffffffffffffffffffffffffffffffff161480610ac05750610abf83610aba611263565b610f71565b5b610aff576040517f08c379a0000000000000000000000000000000000000000000000000000000008152600401610af69061461a565b60405180910390fd5b610b0a8383836119b7565b505050565b610b407f9f2df0fed2c77648de5860a4cc508cd0818c85b8b8a1ab4ceeef8d981c8956a6610b3b611263565b610c3a565b610b7f576040517f08c379a0000000000000000000000000000000000000000000000000000000008152600401610b76906146ba565b60405180910390fd5b610b8b84848484611cb6565b50505050565b610bc27f65d7a28e3265b37a6474929f336521b332c1681b933f6cb9f3376673440d862a610bbd611263565b610c3a565b610c01576040517f08c379a0000000000000000000000000000000000000000000000000000000008152600401610bf89061471a565b60405180910390fd5b610c09611e4d565b565b6000610c328260016000868152602001908152602001600020611ef090919063ffffffff16565b905092915050565b600080600084815260200190815260200160002060000160008373ffffffffffffffffffffffffffffffffffffffff1673ffffffffffffffffffffffffffffffffffffffff16815260200190815260200160002060009054906101000a900460ff16905092915050565b6000801b81565b8173ffffffffffffffffffffffffffffffffffffffff16610cca611263565b73ffffffffffffffffffffffffffffffffffffffff161415610d21576040517f08c379a0000000000000000000000000000000000000000000000000000000008152600401610d189061473a565b60405180910390fd5b8060036000610d2e611263565b73ffffffffffffffffffffffffffffffffffffffff1673ffffffffffffffffffffffffffffffffffffffff16815260200190815260200160002060008473ffffffffffffffffffffffffffffffffffffffff1673ffffffffffffffffffffffffffffffffffffffff16815260200190815260200160002060006101000a81548160ff0219169083151502179055508173ffffffffffffffffffffffffffffffffffffffff16610ddb611263565b73ffffffffffffffffffffffffffffffffffffffff167f17307eab39ab6107e8899845ad3d59bd9653f200f220920489ca2b5937696c3183604051610e2091906144e2565b60405180910390a35050565b6060600660008381526020019081526020016000208054610e4c90614b21565b80601f0160208091040260200160405190810160405280929190818152602001828054610e7890614b21565b8015610ec55780601f10610e9a57610100808354040283529160200191610ec5565b820191906000526020600020905b815481529060010190602001808311610ea857829003601f168201915b50505050509050919050565b6000610eee60016000848152602001908152602001600020611f0a565b9050919050565b7f9f2df0fed2c77648de5860a4cc508cd0818c85b8b8a1ab4ceeef8d981c8956a681565b610f238282611f1f565b610f4881600160008581526020019081526020016000206118e590919063ffffffff16565b505050565b7f65d7a28e3265b37a6474929f336521b332c1681b933f6cb9f3376673440d862a81565b6000600360008473ffffffffffffffffffffffffffffffffffffffff1673ffffffffffffffffffffffffffffffffffffffff16815260200190815260200160002060008373ffffffffffffffffffffffffffffffffffffffff1673ffffffffffffffffffffffffffffffffffffffff16815260200190815260200160002060009054906101000a900460ff16905092915050565b61100d611263565b73ffffffffffffffffffffffffffffffffffffffff168573ffffffffffffffffffffffffffffffffffffffff16148061105357506110528561104d611263565b610f71565b5b611092576040517f08c379a00000000000000000000000000000000000000000000000000000000081526004016110899061461a565b60405180910390fd5b61109f8585858585611f48565b5050505050565b6110ae611263565b73ffffffffffffffffffffffffffffffffffffffff168373ffffffffffffffffffffffffffffffffffffffff1614806110f457506110f3836110ee611263565b610f71565b5b611133576040517f08c379a000000000000000000000000000000000000000000000000000000000815260040161112a9061461a565b60405180910390fd5b61113e8383836121cd565b505050565b61114d82826123ec565b5050565b6000611179836000018373ffffffffffffffffffffffffffffffffffffffff1660001b6124cc565b905092915050565b60007fd9b67a26000000000000000000000000000000000000000000000000000000007bffffffffffffffffffffffffffffffffffffffffffffffffffffffff1916827bffffffffffffffffffffffffffffffffffffffffffffffffffffffff1916148061124c57507f0e89341c000000000000000000000000000000000000000000000000000000007bffffffffffffffffffffffffffffffffffffffffffffffffffffffff1916827bffffffffffffffffffffffffffffffffffffffffffffffffffffffff1916145b8061125c575061125b8261253c565b5b9050919050565b600033905090565b600073ffffffffffffffffffffffffffffffffffffffff168473ffffffffffffffffffffffffffffffffffffffff1614156112db576040517f08c379a00000000000000000000000000000000000000000000000000000000081526004016112d29061479a565b60405180910390fd5b815183511461131f576040517f08c379a00000000000000000000000000000000000000000000000000000000081526004016113169061477a565b60405180910390fd5b6000611329611263565b905061133a816000878787876125b6565b60005b84518110156114405783818151811061137f577f4e487b7100000000000000000000000000000000000000000000000000000000600052603260045260246000fd5b6020026020010151600260008784815181106113c4577f4e487b7100000000000000000000000000000000000000000000000000000000600052603260045260246000fd5b6020026020010151815260200190815260200160002060008873ffffffffffffffffffffffffffffffffffffffff1673ffffffffffffffffffffffffffffffffffffffff16815260200190815260200160002060008282546114269190614953565b92505081905550808061143890614b53565b91505061133d565b508473ffffffffffffffffffffffffffffffffffffffff16600073ffffffffffffffffffffffffffffffffffffffff168273ffffffffffffffffffffffffffffffffffffffff167f4a39dc06d4c0dbc64b70af90fd698a233a518aa5d07e595d983b8c0526c8f7fb87876040516114b89291906144ab565b60405180910390a46114cf816000878787876125cc565b5050505050565b815183511461151a576040517f08c379a00000000000000000000000000000000000000000000000000000000081526004016115119061477a565b60405180910390fd5b600073ffffffffffffffffffffffffffffffffffffffff168473ffffffffffffffffffffffffffffffffffffffff16141561158a576040517f08c379a00000000000000000000000000000000000000000000000000000000081526004016115819061465a565b60405180910390fd5b6000611594611263565b90506115a48187878787876125b6565b60005b84518110156117a45760008582815181106115eb577f4e487b7100000000000000000000000000000000000000000000000000000000600052603260045260246000fd5b602002602001015190506000858381518110611630577f4e487b7100000000000000000000000000000000000000000000000000000000600052603260045260246000fd5b6020026020010151905060006002600084815260200190815260200160002060008b73ffffffffffffffffffffffffffffffffffffffff1673ffffffffffffffffffffffffffffffffffffffff168152602001908152602001600020549050818110156116d2576040517f08c379a00000000000000000000000000000000000000000000000000000000081526004016116c9906146da565b60405180910390fd5b8181036002600085815260200190815260200160002060008c73ffffffffffffffffffffffffffffffffffffffff1673ffffffffffffffffffffffffffffffffffffffff16815260200190815260200160002081905550816002600085815260200190815260200160002060008b73ffffffffffffffffffffffffffffffffffffffff1673ffffffffffffffffffffffffffffffffffffffff16815260200190815260200160002060008282546117899190614953565b925050819055505050508061179d90614b53565b90506115a7565b508473ffffffffffffffffffffffffffffffffffffffff168673ffffffffffffffffffffffffffffffffffffffff168273ffffffffffffffffffffffffffffffffffffffff167f4a39dc06d4c0dbc64b70af90fd698a233a518aa5d07e595d983b8c0526c8f7fb878760405161181b9291906144ab565b60405180910390a46118318187878787876125cc565b505050505050565b61184282610708565b6118538161184e611263565b61279c565b61185d83836123ec565b505050565b61186a611263565b73ffffffffffffffffffffffffffffffffffffffff168173ffffffffffffffffffffffffffffffffffffffff16146118d7576040517f08c379a00000000000000000000000000000000000000000000000000000000081526004016118ce906147ba565b60405180910390fd5b6118e18282612839565b5050565b600061190d836000018373ffffffffffffffffffffffffffffffffffffffff1660001b61291a565b905092915050565b61191d610a5b565b61195c576040517f08c379a00000000000000000000000000000000000000000000000000000000081526004016119539061459a565b60405180910390fd5b6000600560006101000a81548160ff0219169083151502179055507f5db9ee0a495bf2e6ff9c91a7834c1ba4fdd244a5e8aa4e537bd38aeae4b073aa6119a0611263565b6040516119ad91906143ac565b60405180910390a1565b600073ffffffffffffffffffffffffffffffffffffffff168373ffffffffffffffffffffffffffffffffffffffff161415611a27576040517f08c379a0000000000000000000000000000000000000000000000000000000008152600401611a1e9061469a565b60405180910390fd5b8051825114611a6b576040517f08c379a0000000000000000000000000000000000000000000000000000000008152600401611a629061477a565b60405180910390fd5b6000611a75611263565b9050611a95818560008686604051806020016040528060008152506125b6565b60005b8351811015611c30576000848281518110611adc577f4e487b7100000000000000000000000000000000000000000000000000000000600052603260045260246000fd5b602002602001015190506000848381518110611b21577f4e487b7100000000000000000000000000000000000000000000000000000000600052603260045260246000fd5b6020026020010151905060006002600084815260200190815260200160002060008973ffffffffffffffffffffffffffffffffffffffff1673ffffffffffffffffffffffffffffffffffffffff16815260200190815260200160002054905081811015611bc3576040517f08c379a0000000000000000000000000000000000000000000000000000000008152600401611bba906145da565b60405180910390fd5b8181036002600085815260200190815260200160002060008a73ffffffffffffffffffffffffffffffffffffffff1673ffffffffffffffffffffffffffffffffffffffff168152602001908152602001600020819055505050508080611c2890614b53565b915050611a98565b50600073ffffffffffffffffffffffffffffffffffffffff168473ffffffffffffffffffffffffffffffffffffffff168273ffffffffffffffffffffffffffffffffffffffff167f4a39dc06d4c0dbc64b70af90fd698a233a518aa5d07e595d983b8c0526c8f7fb8686604051611ca89291906144ab565b60405180910390a450505050565b600073ffffffffffffffffffffffffffffffffffffffff168473ffffffffffffffffffffffffffffffffffffffff161415611d26576040517f08c379a0000000000000000000000000000000000000000000000000000000008152600401611d1d9061479a565b60405180910390fd5b6000611d30611263565b9050611d5181600087611d4288612aa0565b611d4b88612aa0565b876125b6565b826002600086815260200190815260200160002060008773ffffffffffffffffffffffffffffffffffffffff1673ffffffffffffffffffffffffffffffffffffffff1681526020019081526020016000206000828254611db19190614953565b925050819055508473ffffffffffffffffffffffffffffffffffffffff16600073ffffffffffffffffffffffffffffffffffffffff168273ffffffffffffffffffffffffffffffffffffffff167fc3d58168c5ae7397731d063d5bbf3d657854427343f4c083240f7aacaa2d0f628787604051611e2f9291906147f5565b60405180910390a4611e4681600087878787612b66565b5050505050565b611e55610a5b565b15611e95576040517f08c379a0000000000000000000000000000000000000000000000000000000008152600401611e8c9061463a565b60405180910390fd5b6001600560006101000a81548160ff0219169083151502179055507f62e78cea01bee320cd4e420270b5ea74000d11b0c9f74754ebdbfc544b05a258611ed9611263565b604051611ee691906143ac565b60405180910390a1565b6000611eff8360000183612d36565b60001c905092915050565b6000611f1882600001612d87565b9050919050565b611f2882610708565b611f3981611f34611263565b61279c565b611f438383612839565b505050565b600073ffffffffffffffffffffffffffffffffffffffff168473ffffffffffffffffffffffffffffffffffffffff161415611fb8576040517f08c379a0000000000000000000000000000000000000000000000000000000008152600401611faf9061465a565b60405180910390fd5b6000611fc2611263565b9050611fe2818787611fd388612aa0565b611fdc88612aa0565b876125b6565b60006002600086815260200190815260200160002060008873ffffffffffffffffffffffffffffffffffffffff1673ffffffffffffffffffffffffffffffffffffffff1681526020019081526020016000205490508381101561207a576040517f08c379a0000000000000000000000000000000000000000000000000000000008152600401612071906146da565b60405180910390fd5b8381036002600087815260200190815260200160002060008973ffffffffffffffffffffffffffffffffffffffff1673ffffffffffffffffffffffffffffffffffffffff16815260200190815260200160002081905550836002600087815260200190815260200160002060008873ffffffffffffffffffffffffffffffffffffffff1673ffffffffffffffffffffffffffffffffffffffff16815260200190815260200160002060008282546121319190614953565b925050819055508573ffffffffffffffffffffffffffffffffffffffff168773ffffffffffffffffffffffffffffffffffffffff168373ffffffffffffffffffffffffffffffffffffffff167fc3d58168c5ae7397731d063d5bbf3d657854427343f4c083240f7aacaa2d0f6288886040516121ae9291906147f5565b60405180910390a46121c4828888888888612b66565b50505050505050565b600073ffffffffffffffffffffffffffffffffffffffff168373ffffffffffffffffffffffffffffffffffffffff16141561223d576040517f08c379a00000000000000000000000000000000000000000000000000000000081526004016122349061469a565b60405180910390fd5b6000612247611263565b90506122778185600061225987612aa0565b61226287612aa0565b604051806020016040528060008152506125b6565b60006002600085815260200190815260200160002060008673ffffffffffffffffffffffffffffffffffffffff1673ffffffffffffffffffffffffffffffffffffffff1681526020019081526020016000205490508281101561230f576040517f08c379a0000000000000000000000000000000000000000000000000000000008152600401612306906145da565b60405180910390fd5b8281036002600086815260200190815260200160002060008773ffffffffffffffffffffffffffffffffffffffff1673ffffffffffffffffffffffffffffffffffffffff16815260200190815260200160002081905550600073ffffffffffffffffffffffffffffffffffffffff168573ffffffffffffffffffffffffffffffffffffffff168373ffffffffffffffffffffffffffffffffffffffff167fc3d58168c5ae7397731d063d5bbf3d657854427343f4c083240f7aacaa2d0f6287876040516123dd9291906147f5565b60405180910390a45050505050565b6123f68282610c3a565b6124c857600160008084815260200190815260200160002060000160008373ffffffffffffffffffffffffffffffffffffffff1673ffffffffffffffffffffffffffffffffffffffff16815260200190815260200160002060006101000a81548160ff02191690831515021790555061246d611263565b73ffffffffffffffffffffffffffffffffffffffff168173ffffffffffffffffffffffffffffffffffffffff16837f2f8788117e7eff1d82e926ec794901d17c78024a50270940304540a733656f0d60405160405180910390a45b5050565b60006124d88383612d98565b612531578260000182908060018154018082558091505060019003906000526020600020016000909190919091505582600001805490508360010160008481526020019081526020016000208190555060019050612536565b600090505b92915050565b60007f5a05180f000000000000000000000000000000000000000000000000000000007bffffffffffffffffffffffffffffffffffffffffffffffffffffffff1916827bffffffffffffffffffffffffffffffffffffffffffffffffffffffff191614806125af57506125ae82612dbb565b5b9050919050565b6125c4868686868686612e35565b505050505050565b6125eb8473ffffffffffffffffffffffffffffffffffffffff16612e93565b15612794578373ffffffffffffffffffffffffffffffffffffffff1663bc197c8187878686866040518663ffffffff1660e01b81526004016126319594939291906143c7565b602060405180830381600087803b15801561264b57600080fd5b505af192505050801561267c57506040513d601f19601f820116820180604052508101906126799190613950565b60015b61270b57612688614c47565b8061269357506126d0565b806040517f08c379a00000000000000000000000000000000000000000000000000000000081526004016126c79190614518565b60405180910390fd5b6040517f08c379a00000000000000000000000000000000000000000000000000000000081526004016127029061453a565b60405180910390fd5b63bc197c8160e01b7bffffffffffffffffffffffffffffffffffffffffffffffffffffffff1916817bffffffffffffffffffffffffffffffffffffffffffffffffffffffff191614612792576040517f08c379a00000000000000000000000000000000000000000000000000000000081526004016127899061457a565b60405180910390fd5b505b505050505050565b6127a68282610c3a565b612835576127cb8173ffffffffffffffffffffffffffffffffffffffff166014612ea6565b6127d98360001c6020612ea6565b6040516020016127ea929190614372565b6040516020818303038152906040526040517f08c379a000000000000000000000000000000000000000000000000000000000815260040161282c9190614518565b60405180910390fd5b5050565b6128438282610c3a565b1561291657600080600084815260200190815260200160002060000160008373ffffffffffffffffffffffffffffffffffffffff1673ffffffffffffffffffffffffffffffffffffffff16815260200190815260200160002060006101000a81548160ff0219169083151502179055506128bb611263565b73ffffffffffffffffffffffffffffffffffffffff168173ffffffffffffffffffffffffffffffffffffffff16837ff6391f5c32d9c69d2a47ea670b442974b53935d1edc7fd64eb21e047a839171b60405160405180910390a45b5050565b60008083600101600084815260200190815260200160002054905060008114612a9457600060018261294c9190614a03565b90506000600186600001805490506129649190614a03565b9050818114612a1f5760008660000182815481106129ab577f4e487b7100000000000000000000000000000000000000000000000000000000600052603260045260246000fd5b90600052602060002001549050808760000184815481106129f5577f4e487b7100000000000000000000000000000000000000000000000000000000600052603260045260246000fd5b90600052602060002001819055508387600101600083815260200190815260200160002081905550505b85600001805480612a59577f4e487b7100000000000000000000000000000000000000000000000000000000600052603160045260246000fd5b600190038181906000526020600020016000905590558560010160008681526020019081526020016000206000905560019350505050612a9a565b60009150505b92915050565b60606000600167ffffffffffffffff811115612ae5577f4e487b7100000000000000000000000000000000000000000000000000000000600052604160045260246000fd5b604051908082528060200260200182016040528015612b135781602001602082028036833780820191505090505b5090508281600081518110612b51577f4e487b7100000000000000000000000000000000000000000000000000000000600052603260045260246000fd5b60200260200101818152505080915050919050565b612b858473ffffffffffffffffffffffffffffffffffffffff16612e93565b15612d2e578373ffffffffffffffffffffffffffffffffffffffff1663f23a6e6187878686866040518663ffffffff1660e01b8152600401612bcb95949392919061442f565b602060405180830381600087803b158015612be557600080fd5b505af1925050508015612c1657506040513d601f19601f82011682018060405250810190612c139190613950565b60015b612ca557612c22614c47565b80612c2d5750612c6a565b806040517f08c379a0000000000000000000000000000000000000000000000000000000008152600401612c619190614518565b60405180910390fd5b6040517f08c379a0000000000000000000000000000000000000000000000000000000008152600401612c9c9061453a565b60405180910390fd5b63f23a6e6160e01b7bffffffffffffffffffffffffffffffffffffffffffffffffffffffff1916817bffffffffffffffffffffffffffffffffffffffffffffffffffffffff191614612d2c576040517f08c379a0000000000000000000000000000000000000000000000000000000008152600401612d239061457a565b60405180910390fd5b505b505050505050565b6000826000018281548110612d74577f4e487b7100000000000000000000000000000000000000000000000000000000600052603260045260246000fd5b9060005260206000200154905092915050565b600081600001805490509050919050565b600080836001016000848152602001908152602001600020541415905092915050565b60007f7965db0b000000000000000000000000000000000000000000000000000000007bffffffffffffffffffffffffffffffffffffffffffffffffffffffff1916827bffffffffffffffffffffffffffffffffffffffffffffffffffffffff19161480612e2e5750612e2d826131a0565b5b9050919050565b612e4386868686868661320a565b612e4b610a5b565b15612e8b576040517f08c379a0000000000000000000000000000000000000000000000000000000008152600401612e82906145fa565b60405180910390fd5b505050505050565b600080823b905060008111915050919050565b606060006002836002612eb991906149a9565b612ec39190614953565b67ffffffffffffffff811115612f02577f4e487b7100000000000000000000000000000000000000000000000000000000600052604160045260246000fd5b6040519080825280601f01601f191660200182016040528015612f345781602001600182028036833780820191505090505b5090507f300000000000000000000000000000000000000000000000000000000000000081600081518110612f92577f4e487b7100000000000000000000000000000000000000000000000000000000600052603260045260246000fd5b60200101907effffffffffffffffffffffffffffffffffffffffffffffffffffffffffffff1916908160001a9053507f78000000000000000000000000000000000000000000000000000000000000008160018151811061301c577f4e487b7100000000000000000000000000000000000000000000000000000000600052603260045260246000fd5b60200101907effffffffffffffffffffffffffffffffffffffffffffffffffffffffffffff1916908160001a9053506000600184600261305c91906149a9565b6130669190614953565b90505b6001811115613152577f3031323334353637383961626364656600000000000000000000000000000000600f8616601081106130ce577f4e487b7100000000000000000000000000000000000000000000000000000000600052603260045260246000fd5b1a60f81b82828151811061310b577f4e487b7100000000000000000000000000000000000000000000000000000000600052603260045260246000fd5b60200101907effffffffffffffffffffffffffffffffffffffffffffffffffffffffffffff1916908160001a905350600485901c94508061314b90614af7565b9050613069565b5060008414613196576040517f08c379a000000000000000000000000000000000000000000000000000000000815260040161318d9061455a565b60405180910390fd5b8091505092915050565b60007f01ffc9a7000000000000000000000000000000000000000000000000000000007bffffffffffffffffffffffffffffffffffffffffffffffffffffffff1916827bffffffffffffffffffffffffffffffffffffffffffffffffffffffff1916149050919050565b505050505050565b60006132256132208461484f565b61481e565b9050808382526020820190508285602086028201111561324457600080fd5b60005b85811015613274578161325a8882613328565b845260208401935060208301925050600181019050613247565b5050509392505050565b600061329161328c8461487b565b61481e565b905080838252602082019050828560208602820111156132b057600080fd5b60005b858110156132e057816132c6888261340f565b8452602084019350602083019250506001810190506132b3565b5050509392505050565b60006132fd6132f8846148a7565b61481e565b90508281526020810184848401111561331557600080fd5b613320848285614ab5565b509392505050565b60008135905061333781614cfd565b92915050565b600082601f83011261334e57600080fd5b813561335e848260208601613212565b91505092915050565b600082601f83011261337857600080fd5b813561338884826020860161327e565b91505092915050565b6000813590506133a081614d14565b92915050565b6000813590506133b581614d2b565b92915050565b6000813590506133ca81614d42565b92915050565b6000815190506133df81614d42565b92915050565b600082601f8301126133f657600080fd5b81356134068482602086016132ea565b91505092915050565b60008135905061341e81614d59565b92915050565b6000806040838503121561343757600080fd5b600061344585828601613328565b925050602061345685828601613328565b9150509250929050565b600080600080600060a0868803121561347857600080fd5b600061348688828901613328565b955050602061349788828901613328565b945050604086013567ffffffffffffffff8111156134b457600080fd5b6134c088828901613367565b935050606086013567ffffffffffffffff8111156134dd57600080fd5b6134e988828901613367565b925050608086013567ffffffffffffffff81111561350657600080fd5b613512888289016133e5565b9150509295509295909350565b600080600080600060a0868803121561353757600080fd5b600061354588828901613328565b955050602061355688828901613328565b94505060406135678882890161340f565b93505060606135788882890161340f565b925050608086013567ffffffffffffffff81111561359557600080fd5b6135a1888289016133e5565b9150509295509295909350565b6000806000606084860312156135c357600080fd5b60006135d186828701613328565b935050602084013567ffffffffffffffff8111156135ee57600080fd5b6135fa86828701613367565b925050604084013567ffffffffffffffff81111561361757600080fd5b61362386828701613367565b9150509250925092565b6000806000806080858703121561364357600080fd5b600061365187828801613328565b945050602085013567ffffffffffffffff81111561366e57600080fd5b61367a87828801613367565b935050604085013567ffffffffffffffff81111561369757600080fd5b6136a387828801613367565b925050606085013567ffffffffffffffff8111156136c057600080fd5b6136cc878288016133e5565b91505092959194509250565b600080604083850312156136eb57600080fd5b60006136f985828601613328565b925050602061370a85828601613391565b9150509250929050565b6000806040838503121561372757600080fd5b600061373585828601613328565b92505060206137468582860161340f565b9150509250929050565b60008060006060848603121561376557600080fd5b600061377386828701613328565b93505060206137848682870161340f565b92505060406137958682870161340f565b9150509250925092565b600080600080608085870312156137b557600080fd5b60006137c387828801613328565b94505060206137d48782880161340f565b93505060406137e58782880161340f565b925050606085013567ffffffffffffffff81111561380257600080fd5b61380e878288016133e5565b91505092959194509250565b6000806040838503121561382d57600080fd5b600083013567ffffffffffffffff81111561384757600080fd5b6138538582860161333d565b925050602083013567ffffffffffffffff81111561387057600080fd5b61387c85828601613367565b9150509250929050565b60006020828403121561389857600080fd5b60006138a6848285016133a6565b91505092915050565b600080604083850312156138c257600080fd5b60006138d0858286016133a6565b92505060206138e185828601613328565b9150509250929050565b600080604083850312156138fe57600080fd5b600061390c858286016133a6565b925050602061391d8582860161340f565b9150509250929050565b60006020828403121561393957600080fd5b6000613947848285016133bb565b91505092915050565b60006020828403121561396257600080fd5b6000613970848285016133d0565b91505092915050565b60006020828403121561398b57600080fd5b60006139998482850161340f565b91505092915050565b60006139ae8383614354565b60208301905092915050565b6139c381614a37565b82525050565b60006139d4826148e7565b6139de8185614915565b93506139e9836148d7565b8060005b83811015613a1a578151613a0188826139a2565b9750613a0c83614908565b9250506001810190506139ed565b5085935050505092915050565b613a3081614a49565b82525050565b613a3f81614a55565b82525050565b6000613a50826148f2565b613a5a8185614926565b9350613a6a818560208601614ac4565b613a7381614c29565b840191505092915050565b6000613a89826148fd565b613a938185614937565b9350613aa3818560208601614ac4565b613aac81614c29565b840191505092915050565b6000613ac2826148fd565b613acc8185614948565b9350613adc818560208601614ac4565b80840191505092915050565b6000613af5603483614937565b91507f455243313135353a207472616e7366657220746f206e6f6e204552433131353560008301527f526563656976657220696d706c656d656e7465720000000000000000000000006020830152604082019050919050565b6000613b5b602083614937565b91507f537472696e67733a20686578206c656e67746820696e73756666696369656e746000830152602082019050919050565b6000613b9b602883614937565b91507f455243313135353a204552433131353552656365697665722072656a6563746560008301527f6420746f6b656e730000000000000000000000000000000000000000000000006020830152604082019050919050565b6000613c01601483614937565b91507f5061757361626c653a206e6f74207061757365640000000000000000000000006000830152602082019050919050565b6000613c41602b83614937565b91507f455243313135353a2062616c616e636520717565727920666f7220746865207a60008301527f65726f20616464726573730000000000000000000000000000000000000000006020830152604082019050919050565b6000613ca7602483614937565b91507f455243313135353a206275726e20616d6f756e7420657863656564732062616c60008301527f616e6365000000000000000000000000000000000000000000000000000000006020830152604082019050919050565b6000613d0d602c83614937565b91507f455243313135355061757361626c653a20746f6b656e207472616e736665722060008301527f7768696c652070617573656400000000000000000000000000000000000000006020830152604082019050919050565b6000613d73602983614937565b91507f455243313135353a2063616c6c6572206973206e6f74206f776e6572206e6f7260008301527f20617070726f76656400000000000000000000000000000000000000000000006020830152604082019050919050565b6000613dd9601083614937565b91507f5061757361626c653a20706175736564000000000000000000000000000000006000830152602082019050919050565b6000613e19602583614937565b91507f455243313135353a207472616e7366657220746f20746865207a65726f20616460008301527f64726573730000000000000000000000000000000000000000000000000000006020830152604082019050919050565b6000613e7f603283614937565b91507f455243313135353a207472616e736665722063616c6c6572206973206e6f742060008301527f6f776e6572206e6f7220617070726f76656400000000000000000000000000006020830152604082019050919050565b6000613ee5602383614937565b91507f455243313135353a206275726e2066726f6d20746865207a65726f206164647260008301527f65737300000000000000000000000000000000000000000000000000000000006020830152604082019050919050565b6000613f4b603883614937565b91507f455243313135355072657365744d696e7465725061757365723a206d7573742060008301527f68617665206d696e74657220726f6c6520746f206d696e7400000000000000006020830152604082019050919050565b6000613fb1602a83614937565b91507f455243313135353a20696e73756666696369656e742062616c616e636520666f60008301527f72207472616e73666572000000000000000000000000000000000000000000006020830152604082019050919050565b6000614017603b83614937565b91507f455243313135355072657365744d696e7465725061757365723a206d7573742060008301527f686176652070617573657220726f6c6520746f20756e706175736500000000006020830152604082019050919050565b600061407d603983614937565b91507f455243313135355072657365744d696e7465725061757365723a206d7573742060008301527f686176652070617573657220726f6c6520746f207061757365000000000000006020830152604082019050919050565b60006140e3601783614948565b91507f416363657373436f6e74726f6c3a206163636f756e74200000000000000000006000830152601782019050919050565b6000614123602983614937565b91507f455243313135353a2073657474696e6720617070726f76616c2073746174757360008301527f20666f722073656c6600000000000000000000000000000000000000000000006020830152604082019050919050565b6000614189602983614937565b91507f455243313135353a206163636f756e747320616e6420696473206c656e67746860008301527f206d69736d6174636800000000000000000000000000000000000000000000006020830152604082019050919050565b60006141ef602883614937565b91507f455243313135353a2069647320616e6420616d6f756e7473206c656e6774682060008301527f6d69736d617463680000000000000000000000000000000000000000000000006020830152604082019050919050565b6000614255602183614937565b91507f455243313135353a206d696e7420746f20746865207a65726f2061646472657360008301527f73000000000000000000000000000000000000000000000000000000000000006020830152604082019050919050565b60006142bb601183614948565b91507f206973206d697373696e6720726f6c65200000000000000000000000000000006000830152601182019050919050565b60006142fb602f83614937565b91507f416363657373436f6e74726f6c3a2063616e206f6e6c792072656e6f756e636560008301527f20726f6c657320666f722073656c6600000000000000000000000000000000006020830152604082019050919050565b61435d81614aab565b82525050565b61436c81614aab565b82525050565b600061437d826140d6565b91506143898285613ab7565b9150614394826142ae565b91506143a08284613ab7565b91508190509392505050565b60006020820190506143c160008301846139ba565b92915050565b600060a0820190506143dc60008301886139ba565b6143e960208301876139ba565b81810360408301526143fb81866139c9565b9050818103606083015261440f81856139c9565b905081810360808301526144238184613a45565b90509695505050505050565b600060a08201905061444460008301886139ba565b61445160208301876139ba565b61445e6040830186614363565b61446b6060830185614363565b818103608083015261447d8184613a45565b90509695505050505050565b600060208201905081810360008301526144a381846139c9565b905092915050565b600060408201905081810360008301526144c581856139c9565b905081810360208301526144d981846139c9565b90509392505050565b60006020820190506144f76000830184613a27565b92915050565b60006020820190506145126000830184613a36565b92915050565b600060208201905081810360008301526145328184613a7e565b905092915050565b6000602082019050818103600083015261455381613ae8565b9050919050565b6000602082019050818103600083015261457381613b4e565b9050919050565b6000602082019050818103600083015261459381613b8e565b9050919050565b600060208201905081810360008301526145b381613bf4565b9050919050565b600060208201905081810360008301526145d381613c34565b9050919050565b600060208201905081810360008301526145f381613c9a565b9050919050565b6000602082019050818103600083015261461381613d00565b9050919050565b6000602082019050818103600083015261463381613d66565b9050919050565b6000602082019050818103600083015261465381613dcc565b9050919050565b6000602082019050818103600083015261467381613e0c565b9050919050565b6000602082019050818103600083015261469381613e72565b9050919050565b600060208201905081810360008301526146b381613ed8565b9050919050565b600060208201905081810360008301526146d381613f3e565b9050919050565b600060208201905081810360008301526146f381613fa4565b9050919050565b600060208201905081810360008301526147138161400a565b9050919050565b6000602082019050818103600083015261473381614070565b9050919050565b6000602082019050818103600083015261475381614116565b9050919050565b600060208201905081810360008301526147738161417c565b9050919050565b60006020820190508181036000830152614793816141e2565b9050919050565b600060208201905081810360008301526147b381614248565b9050919050565b600060208201905081810360008301526147d3816142ee565b9050919050565b60006020820190506147ef6000830184614363565b92915050565b600060408201905061480a6000830185614363565b6148176020830184614363565b9392505050565b6000604051905081810181811067ffffffffffffffff8211171561484557614844614bfa565b5b8060405250919050565b600067ffffffffffffffff82111561486a57614869614bfa565b5b602082029050602081019050919050565b600067ffffffffffffffff82111561489657614895614bfa565b5b602082029050602081019050919050565b600067ffffffffffffffff8211156148c2576148c1614bfa565b5b601f19601f8301169050602081019050919050565b6000819050602082019050919050565b600081519050919050565b600081519050919050565b600081519050919050565b6000602082019050919050565b600082825260208201905092915050565b600082825260208201905092915050565b600082825260208201905092915050565b600081905092915050565b600061495e82614aab565b915061496983614aab565b9250827fffffffffffffffffffffffffffffffffffffffffffffffffffffffffffffffff0382111561499e5761499d614b9c565b5b828201905092915050565b60006149b482614aab565b91506149bf83614aab565b9250817fffffffffffffffffffffffffffffffffffffffffffffffffffffffffffffffff04831182151516156149f8576149f7614b9c565b5b828202905092915050565b6000614a0e82614aab565b9150614a1983614aab565b925082821015614a2c57614a2b614b9c565b5b828203905092915050565b6000614a4282614a8b565b9050919050565b60008115159050919050565b6000819050919050565b60007fffffffff0000000000000000000000000000000000000000000000000000000082169050919050565b600073ffffffffffffffffffffffffffffffffffffffff82169050919050565b6000819050919050565b82818337600083830152505050565b60005b83811015614ae2578082015181840152602081019050614ac7565b83811115614af1576000848401525b50505050565b6000614b0282614aab565b91506000821415614b1657614b15614b9c565b5b600182039050919050565b60006002820490506001821680614b3957607f821691505b60208210811415614b4d57614b4c614bcb565b5b50919050565b6000614b5e82614aab565b91507fffffffffffffffffffffffffffffffffffffffffffffffffffffffffffffffff821415614b9157614b90614b9c565b5b600182019050919050565b7f4e487b7100000000000000000000000000000000000000000000000000000000600052601160045260246000fd5b7f4e487b7100000000000000000000000000000000000000000000000000000000600052602260045260246000fd5b7f4e487b7100000000000000000000000000000000000000000000000000000000600052604160045260246000fd5b6000601f19601f8301169050919050565b60008160e01c9050919050565b600060443d1015614c5757614cfa565b60046000803e614c68600051614c3a565b6308c379a08114614c795750614cfa565b60405160043d036004823e80513d602482011167ffffffffffffffff82111715614ca557505050614cfa565b808201805167ffffffffffffffff811115614cc4575050505050614cfa565b8060208301013d8501811115614cdf57505050505050614cfa565b614ce882614c29565b60208401016040528296505050505050505b90565b614d0681614a37565b8114614d1157600080fd5b50565b614d1d81614a49565b8114614d2857600080fd5b50565b614d3481614a55565b8114614d3f57600080fd5b50565b614d4b81614a5f565b8114614d5657600080fd5b50565b614d6281614aab565b8114614d6d57600080fd5b5056fea2646970667358221220ebe40a9391684fc0fcd9e93caca2d20727cce43176633f10e87710aa0025733864736f6c6343000800003368747470733a2f2f67616d652e6578616d706c652f6170692f6974656d2f7b69647d2e6a736f6e",
  "immutableReferences": {},
  "source": "pragma solidity ^0.8.0;\r\n\r\nimport \"@openzeppelin/contracts/token/ERC1155/presets/ERC1155PresetMinterPauser.sol\";\r\nimport \"@openzeppelin/contracts/token/ERC1155/extensions/IERC1155MetadataURI.sol\";\r\n\r\ncontract NFcool is ERC1155PresetMinterPauser {\r\n    using Strings for uint256;\r\n\r\n    mapping(uint256 => string) private _tokenURIs;\r\n\r\n    constructor() ERC1155PresetMinterPauser(\"https://game.example/api/item/{id}.json\") {\r\n\r\n    }\r\n\r\n    function tokenURI(uint256 tokenId) public view virtual returns (string memory) {\r\n        return _tokenURIs[tokenId];\r\n    }\r\n}\r\n",
  "sourcePath": "C:\\Users\\smlvi\\WebstormProjects\\nfcool-smart-contracts\\contracts\\NFcool.sol",
  "compiler": {
    "name": "solc",
    "version": "0.8.0+commit.c7dfd78e.Emscripten.clang"
  },
  "schemaVersion": "3.4.3",
  "updatedAt": "2021-10-28T12:47:18.421Z",
  "devdoc": {
    "kind": "dev",
    "methods": {
      "balanceOf(address,uint256)": {
        "details": "See {IERC1155-balanceOf}. Requirements: - `account` cannot be the zero address."
      },
      "balanceOfBatch(address[],uint256[])": {
        "details": "See {IERC1155-balanceOfBatch}. Requirements: - `accounts` and `ids` must have the same length."
      },
      "getRoleAdmin(bytes32)": {
        "details": "Returns the admin role that controls `role`. See {grantRole} and {revokeRole}. To change a role's admin, use {_setRoleAdmin}."
      },
      "getRoleMember(bytes32,uint256)": {
        "details": "Returns one of the accounts that have `role`. `index` must be a value between 0 and {getRoleMemberCount}, non-inclusive. Role bearers are not sorted in any particular way, and their ordering may change at any point. WARNING: When using {getRoleMember} and {getRoleMemberCount}, make sure you perform all queries on the same block. See the following https://forum.openzeppelin.com/t/iterating-over-elements-on-enumerableset-in-openzeppelin-contracts/2296[forum post] for more information."
      },
      "getRoleMemberCount(bytes32)": {
        "details": "Returns the number of accounts that have `role`. Can be used together with {getRoleMember} to enumerate all bearers of a role."
      },
      "grantRole(bytes32,address)": {
        "details": "Overload {grantRole} to track enumerable memberships"
      },
      "hasRole(bytes32,address)": {
        "details": "Returns `true` if `account` has been granted `role`."
      },
      "isApprovedForAll(address,address)": {
        "details": "See {IERC1155-isApprovedForAll}."
      },
      "mint(address,uint256,uint256,bytes)": {
        "details": "Creates `amount` new tokens for `to`, of token type `id`. See {ERC1155-_mint}. Requirements: - the caller must have the `MINTER_ROLE`."
      },
      "mintBatch(address,uint256[],uint256[],bytes)": {
        "details": "xref:ROOT:erc1155.adoc#batch-operations[Batched] variant of {mint}."
      },
      "pause()": {
        "details": "Pauses all token transfers. See {ERC1155Pausable} and {Pausable-_pause}. Requirements: - the caller must have the `PAUSER_ROLE`."
      },
      "paused()": {
        "details": "Returns true if the contract is paused, and false otherwise."
      },
      "renounceRole(bytes32,address)": {
        "details": "Overload {renounceRole} to track enumerable memberships"
      },
      "revokeRole(bytes32,address)": {
        "details": "Overload {revokeRole} to track enumerable memberships"
      },
      "safeBatchTransferFrom(address,address,uint256[],uint256[],bytes)": {
        "details": "See {IERC1155-safeBatchTransferFrom}."
      },
      "safeTransferFrom(address,address,uint256,uint256,bytes)": {
        "details": "See {IERC1155-safeTransferFrom}."
      },
      "setApprovalForAll(address,bool)": {
        "details": "See {IERC1155-setApprovalForAll}."
      },
      "supportsInterface(bytes4)": {
        "details": "See {IERC165-supportsInterface}."
      },
      "unpause()": {
        "details": "Unpauses all token transfers. See {ERC1155Pausable} and {Pausable-_unpause}. Requirements: - the caller must have the `PAUSER_ROLE`."
      },
      "uri(uint256)": {
        "details": "See {IERC1155MetadataURI-uri}. This implementation returns the same URI for *all* token types. It relies on the token type ID substitution mechanism https://eips.ethereum.org/EIPS/eip-1155#metadata[defined in the EIP]. Clients calling this function must replace the `\\{id\\}` substring with the actual token type ID."
      }
    },
    "version": 1
  },
  "userdoc": {
    "kind": "user",
    "methods": {},
    "version": 1
  }
}